{
  "contractName": "AllowList",
  "abi": [
    {
      "inputs": [
        {
          "internalType": "address",
          "name": "account",
          "type": "address"
        }
      ],
      "name": "addAdmin",
      "outputs": [],
      "stateMutability": "nonpayable",
      "type": "function"
    },
    {
      "inputs": [
        {
          "internalType": "address",
          "name": "account",
          "type": "address"
        }
      ],
      "name": "addGameDeveloper",
      "outputs": [],
      "stateMutability": "nonpayable",
      "type": "function"
    },
    {
      "inputs": [
        {
          "internalType": "address",
          "name": "account",
          "type": "address"
        }
      ],
      "name": "addPlayer",
      "outputs": [],
      "stateMutability": "nonpayable",
      "type": "function"
    },
    {
      "inputs": [
        {
          "internalType": "address",
          "name": "account",
          "type": "address"
        }
      ],
      "name": "isAdmin",
      "outputs": [
        {
          "internalType": "bool",
          "name": "",
          "type": "bool"
        }
      ],
      "stateMutability": "view",
      "type": "function"
    },
    {
      "inputs": [
        {
          "internalType": "address",
          "name": "account",
          "type": "address"
        }
      ],
      "name": "isDeveloper",
      "outputs": [
        {
          "internalType": "bool",
          "name": "",
          "type": "bool"
        }
      ],
      "stateMutability": "view",
      "type": "function"
    },
    {
      "inputs": [],
      "name": "owner",
      "outputs": [
        {
          "internalType": "address",
          "name": "",
          "type": "address"
        }
      ],
      "stateMutability": "view",
      "type": "function"
    },
    {
      "inputs": [
        {
          "internalType": "address",
          "name": "newOwner",
          "type": "address"
        }
      ],
      "name": "transferOwnership",
      "outputs": [],
      "stateMutability": "nonpayable",
      "type": "function"
    },
    {
      "inputs": [
        {
          "internalType": "address",
          "name": "account",
          "type": "address"
        }
      ],
      "name": "addAllowList",
      "outputs": [],
      "stateMutability": "nonpayable",
      "type": "function"
    },
    {
      "inputs": [
        {
          "internalType": "address",
          "name": "account",
          "type": "address"
        }
      ],
      "name": "isAllowList",
      "outputs": [
        {
          "internalType": "bool",
          "name": "",
          "type": "bool"
        }
      ],
      "stateMutability": "view",
      "type": "function"
    },
    {
      "inputs": [
        {
          "internalType": "address",
          "name": "account",
          "type": "address"
        }
      ],
      "name": "removeAllowListed",
      "outputs": [],
      "stateMutability": "nonpayable",
      "type": "function"
    }
  ],
  "bytecode": "0x608060405234801561001057600080fd5b50336000806101000a81548173ffffffffffffffffffffffffffffffffffffffff021916908373ffffffffffffffffffffffffffffffffffffffff16021790555060018060003373ffffffffffffffffffffffffffffffffffffffff1673ffffffffffffffffffffffffffffffffffffffff16815260200190815260200160002060006101000a81548160ff0219169083151502179055506001600260003373ffffffffffffffffffffffffffffffffffffffff1673ffffffffffffffffffffffffffffffffffffffff16815260200190815260200160002060006101000a81548160ff021916908315150217905550610bf38061010f6000396000f3fe608060405234801561001057600080fd5b506004361061009e5760003560e01c80638da5cb5b116100665780638da5cb5b146101575780639da2116714610175578063b1275f9a14610191578063f2fde38b146101ad578063f5964e08146101c95761009e565b806324d7806c146100a35780634940c5fb146100d35780635eca4a70146100ef578063704802751461011f5780637d4745271461013b575b600080fd5b6100bd60048036038101906100b89190610b30565b6101f9565b6040516100ca9190610b78565b60405180910390f35b6100ed60048036038101906100e89190610b30565b6102a8565b005b61010960048036038101906101049190610b30565b6103f0565b6040516101169190610b78565b60405180910390f35b61013960048036038101906101349190610b30565b61049f565b005b61015560048036038101906101509190610b30565b6105e1565b005b61015f610728565b60405161016c9190610ba2565b60405180910390f35b61018f600480360381019061018a9190610b30565b61074c565b005b6101ab60048036038101906101a69190610b30565b610894565b005b6101c760048036038101906101c29190610b30565b6109dc565b005b6101e360048036038101906101de9190610b30565b610a77565b6040516101f09190610b78565b60405180910390f35b60008060009054906101000a900473ffffffffffffffffffffffffffffffffffffffff1673ffffffffffffffffffffffffffffffffffffffff163373ffffffffffffffffffffffffffffffffffffffff161461025457600080fd5b600160008373ffffffffffffffffffffffffffffffffffffffff1673ffffffffffffffffffffffffffffffffffffffff16815260200190815260200160002060009054906101000a900460ff169050919050565b60011515600160003373ffffffffffffffffffffffffffffffffffffffff1673ffffffffffffffffffffffffffffffffffffffff16815260200190815260200160002060009054906101000a900460ff1615151461030557600080fd5b600073ffffffffffffffffffffffffffffffffffffffff168173ffffffffffffffffffffffffffffffffffffffff161415801561038c5750600260008273ffffffffffffffffffffffffffffffffffffffff1673ffffffffffffffffffffffffffffffffffffffff16815260200190815260200160002060009054906101000a900460ff16155b61039557600080fd5b6001600260008373ffffffffffffffffffffffffffffffffffffffff1673ffffffffffffffffffffffffffffffffffffffff16815260200190815260200160002060006101000a81548160ff02191690831515021790555050565b60008060009054906101000a900473ffffffffffffffffffffffffffffffffffffffff1673ffffffffffffffffffffffffffffffffffffffff163373ffffffffffffffffffffffffffffffffffffffff161461044b57600080fd5b600260008373ffffffffffffffffffffffffffffffffffffffff1673ffffffffffffffffffffffffffffffffffffffff16815260200190815260200160002060009054906101000a900460ff169050919050565b60008054906101000a900473ffffffffffffffffffffffffffffffffffffffff1673ffffffffffffffffffffffffffffffffffffffff163373ffffffffffffffffffffffffffffffffffffffff16146104f757600080fd5b600073ffffffffffffffffffffffffffffffffffffffff168173ffffffffffffffffffffffffffffffffffffffff161415801561057e5750600160008273ffffffffffffffffffffffffffffffffffffffff1673ffffffffffffffffffffffffffffffffffffffff16815260200190815260200160002060009054906101000a900460ff16155b61058757600080fd5b60018060008373ffffffffffffffffffffffffffffffffffffffff1673ffffffffffffffffffffffffffffffffffffffff16815260200190815260200160002060006101000a81548160ff02191690831515021790555050565b60011515600160003373ffffffffffffffffffffffffffffffffffffffff1673ffffffffffffffffffffffffffffffffffffffff16815260200190815260200160002060009054906101000a900460ff1615151461063e57600080fd5b600073ffffffffffffffffffffffffffffffffffffffff168173ffffffffffffffffffffffffffffffffffffffff16141580156106c45750600460008273ffffffffffffffffffffffffffffffffffffffff1673ffffffffffffffffffffffffffffffffffffffff16815260200190815260200160002060009054906101000a900460ff165b6106cd57600080fd5b6000600460008373ffffffffffffffffffffffffffffffffffffffff1673ffffffffffffffffffffffffffffffffffffffff16815260200190815260200160002060006101000a81548160ff02191690831515021790555050565b60008054906101000a900473ffffffffffffffffffffffffffffffffffffffff1681565b60011515600160003373ffffffffffffffffffffffffffffffffffffffff1673ffffffffffffffffffffffffffffffffffffffff16815260200190815260200160002060009054906101000a900460ff161515146107a957600080fd5b600073ffffffffffffffffffffffffffffffffffffffff168173ffffffffffffffffffffffffffffffffffffffff16141580156108305750600460008273ffffffffffffffffffffffffffffffffffffffff1673ffffffffffffffffffffffffffffffffffffffff16815260200190815260200160002060009054906101000a900460ff16155b61083957600080fd5b6001600460008373ffffffffffffffffffffffffffffffffffffffff1673ffffffffffffffffffffffffffffffffffffffff16815260200190815260200160002060006101000a81548160ff02191690831515021790555050565b60011515600160003373ffffffffffffffffffffffffffffffffffffffff1673ffffffffffffffffffffffffffffffffffffffff16815260200190815260200160002060009054906101000a900460ff161515146108f157600080fd5b600073ffffffffffffffffffffffffffffffffffffffff168173ffffffffffffffffffffffffffffffffffffffff16141580156109785750600360008273ffffffffffffffffffffffffffffffffffffffff1673ffffffffffffffffffffffffffffffffffffffff16815260200190815260200160002060009054906101000a900460ff16155b61098157600080fd5b6001600360008373ffffffffffffffffffffffffffffffffffffffff1673ffffffffffffffffffffffffffffffffffffffff16815260200190815260200160002060006101000a81548160ff02191690831515021790555050565b60008054906101000a900473ffffffffffffffffffffffffffffffffffffffff1673ffffffffffffffffffffffffffffffffffffffff163373ffffffffffffffffffffffffffffffffffffffff1614610a3457600080fd5b806000806101000a81548173ffffffffffffffffffffffffffffffffffffffff021916908373ffffffffffffffffffffffffffffffffffffffff16021790555050565b6000600460008373ffffffffffffffffffffffffffffffffffffffff1673ffffffffffffffffffffffffffffffffffffffff16815260200190815260200160002060009054906101000a900460ff169050919050565b600080fd5b600073ffffffffffffffffffffffffffffffffffffffff82169050919050565b6000610afd82610ad2565b9050919050565b610b0d81610af2565b8114610b1857600080fd5b50565b600081359050610b2a81610b04565b92915050565b600060208284031215610b4657610b45610acd565b5b6000610b5484828501610b1b565b91505092915050565b60008115159050919050565b610b7281610b5d565b82525050565b6000602082019050610b8d6000830184610b69565b92915050565b610b9c81610af2565b82525050565b6000602082019050610bb76000830184610b93565b9291505056fea2646970667358221220f03d520b750dc99817b84fe06c52858e9b246192d4d7eeebd362e1defb5aa15064736f6c634300080b0033",
  "immutableReferences": {},
  "source": "//SPDX-License-Identifier : MIT\npragma solidity ^0.8.0;\n\nimport \"./SafeMath.sol\";\n\ncontract owned {\n    address public owner;\n    mapping(address => bool) admins;\n    mapping(address => bool) developers;\n    mapping(address => bool) players;\n    constructor () {\n        owner = msg.sender;\n        admins[msg.sender] = true;\n        developers[msg.sender] = true;\n    }\n    //modifiers for the contracts\n    modifier onlyOwner {\n        require(msg.sender == owner);\n        _;\n    }\n    modifier onlyAdmin() {\n        require(admins[msg.sender] == true);\n            _;\n    }\n    modifier onlyDevelopers(){\n        require(developers[msg.sender]==true);\n        _;\n    }\n    function transferOwnership(address newOwner) onlyOwner public {\n        owner = newOwner;\n    }\n    function isAdmin(address account) onlyOwner public view returns (bool) {   \n        return admins[account];\n    }\n    function isDeveloper(address account) onlyOwner public view returns (bool) {   \n        return developers[account];\n    }\n    function addAdmin(address account) onlyOwner public {\n        require(account != address(0) && !admins[account]);             \n        admins[account] = true;    \n    }\n    function addGameDeveloper(address account) onlyAdmin public {\n        require(account != address(0) && !developers[account]);             \n        developers[account] = true;    \n    }\n    function addPlayer(address account) onlyAdmin public {\n        require(account != address(0) && !players[account]);             \n        players[account] = true;    \n    }\n}\ncontract AllowList is owned {\n    mapping(address => bool) allowList;\n    //Allowlist functions for security\n    function addAllowList(address account) onlyAdmin public{\n        require(account != address(0) && !allowList[account]);             \n        allowList[account] = true;    \n    }\n\n    function isAllowList(address account) public view returns (bool) {   \n        return allowList[account];\n    }\n\n    function removeAllowListed(address account) public onlyAdmin {\n        require(account != address(0) && allowList[account]);\n        allowList[account] = false;    \n    }\n}\n/**\n * make contract function pausable\n */\ncontract Pausable is owned {\n    event PausedEvt(address account);\n    event UnpausedEvt(address account);\n    bool private paused;\n    constructor  () {\n        paused = false;\n    }\n    //Pause mechanism for security\n    modifier whenNotPaused() {\n        require(!paused);\n        _;\n    }\n    modifier whenPaused() {\n        require(paused);\n        _;\n    }\n    function pause() public onlyAdmin whenNotPaused {\n        paused = true;\n        emit PausedEvt(msg.sender);\n    }\n    function unpause() public onlyAdmin whenPaused {\n        paused = false;\n        emit UnpausedEvt(msg.sender);\n    }\n}\ninterface Inventory {\n    enum Damage {zero,one,two,three,four,fivve,six}\n    struct Item {\n        uint id;\n        string name;\n        Damage damage;\n        uint price;\n        address owner;\n        bool purchased;\n    }\n    function addItem(uint _id, string memory _name, Damage _damage, uint _price) external;\n    function buyItem(uint _id) external payable;\n}\n\ninterface IERC20{\n    function totalSupply() external view returns (uint256);\n    function balanceOf(address account) external view returns (uint256);\n    function transfer(address recipient, uint256 amount) external returns (bool);\n    function allowance(address owner, address spender) external view returns (uint256);\n    function approve(address spender, uint256 amount) external returns (bool);\n    function transferFrom(address sender, address recipient, uint256 amount) external returns (bool);\n    event Transfer(address indexed from, address indexed to, uint256 value);\n    event Approval(address indexed owner, address indexed spender, uint256 value);\n}\ncontract GameToken is IERC20,AllowList,Pausable,Inventory {\n    string public name = \"KriDe\";\n    string public symbol = \"KD\";\n    address payable contractAccount;\n    TokenSummary public tokensummary;\n    struct TokenSummary {\n        address initialAccount;\n        string name;\n        string symbol;\n    }\n    mapping(address => uint256) internal balances;\n    mapping (address => mapping (address => uint256)) internal allowed;\n    mapping(uint => Item) public items;\n    uint public itemCount;\n    mapping(address => uint) internal rewards;\n    uint256 internal _totalSupply;\n    uint8 public tokenAmount = 15;\n    uint8 public tokenReward;\n    uint8 public constant SUCCESS_CODE = 0;\n    string public constant SUCCESS_MESSAGE = \"SUCCESS\";\n    uint8 public constant DENY_LIST_CODE = 1;\n    string public constant DENY_LIST_ERROR = \"ILLEGAL_TRANSFER_TO_DENY_LISTED_ADDRESS\";\n    event Burn(address from, uint256 value);\n    constructor(address initialAccount, uint initialBalance) public payable {\n        addAllowList(initialAccount);\n        balances[initialAccount] = initialBalance;\n        _totalSupply = initialBalance;\n        tokensummary = TokenSummary(initialAccount, name, symbol);\n    }\n    modifier verify (address from, address to, uint256 value) {\n        uint8 restrictionCode = validateTransferRestricted(to);\n        require(restrictionCode == SUCCESS_CODE, messageHandler(restrictionCode));\n        _;\n    }\n\n    function validateTransferRestricted (address to) public view returns (uint8 restrictionCode) {\n        if (!isAllowList(to)) {\n            restrictionCode = DENY_LIST_CODE;\n        } else {\n            restrictionCode = SUCCESS_CODE;\n        }\n    }\n    function messageHandler (uint8 restrictionCode) public pure returns (string memory message) {\n        if (restrictionCode == SUCCESS_CODE) {\n            message = SUCCESS_MESSAGE;\n        } else if(restrictionCode == DENY_LIST_CODE) {\n            message = DENY_LIST_ERROR;\n        }\n    }\n    //return total supply\n    function totalSupply() public view returns (uint256) {\n       return _totalSupply;\n    }\n    // return the token balance of an account\n    function balanceOf(address account) public view returns (uint256) {\n      return balances[account];\n    }\n    // to transfer tokens between addresses in the allowlist\n    function transfer(address to, uint256 value) public verify(msg.sender, to, value)\n    whenNotPaused  returns (bool success) {\n        require(to != address(0) && balances[msg.sender]> value);\n        balances[msg.sender] = balances[msg.sender] - value;\n        balances[to] = balances[to] + value;\n        emit Transfer(msg.sender, to, value);\n        return true;\n    }\n    // to transfer tokens when allowance is set\n    function transferFrom(address from, address spender,uint256 value) public verify(from, spender, value) whenNotPaused returns (bool) {\n        require(spender != address(0) && value <= balances[from] && value <= allowed[from][msg.sender]);\n        balances[from] = balances[from] - value;\n        balances[spender] = balances[spender] + value;\n        allowed[from][msg.sender] = allowed[from][msg.sender] - value;\n        emit Transfer(from, spender, value);\n        return true;\n  \t}\n    // to retrieve the remaining allowance set between two addresses\n\tfunction allowance(address owner,address spender) public view returns (uint256) {\n   \t\treturn allowed[owner][spender];\n \t}\n    // to approve an allowance to an address\n    function approve(address spender, uint256 value) public returns (bool) {\n        require(spender != address(0));\n        allowed[msg.sender][spender] = value;\n        emit Approval(msg.sender, spender, value);\n        return true;\n   \t}\n    // to add an item to the inventory list\n    function addItem(uint _id, string memory _name, Damage _damage, uint _price) external onlyDevelopers override {\n        items[itemCount] = Item(_id, _name, _damage, _price, msg.sender, false);\n        itemCount++;\n    }\n    // to buy an item in the inventory list\n    function buyItem(uint _id) external payable override {\n        require(items[_id].id != 0, \"Item does not exist\");\n        require(items[_id].purchased == false, \"Item is already purchased\");\n        require(balances[msg.sender] >= items[_id].price, \"Insufficient funds\");\n        //Transfer funds\n        address seller = items[_id].owner;\n        uint amount = items[_id].price;\n        transfer(payable(seller),amount);\n        items[_id].owner = msg.sender;\n        items[_id].purchased = true;\n    }\n    // to retrieve items owned by an address\n    function getItemsByOwner(address _owner) external view returns (Item[] memory) {\n        uint ownedItemCount = 0;\n        for (uint i = 0; i < itemCount; i++) {\n            if (items[i].owner == _owner) {\n                ownedItemCount++;\n            }\n        }\n        Item[] memory ownedItems = new Item[](ownedItemCount);\n        uint ownedItemIndex = 0;\n        for (uint i = 0; i < itemCount; i++) {\n            if (items[i].owner == _owner) {\n                ownedItems[ownedItemIndex] = items[i];\n                ownedItemIndex++;\n            }\n        }\n        return ownedItems;\n    }\n    // to retrieve all the unpurchased items in the inventory list\n    function getUnpurchasedItems() external view returns (Item[] memory) {\n            uint unpurchasedItemCount = 0;\n            for (uint i = 0; i < itemCount; i++) {\n                if (items[i].purchased == false) {\n                    unpurchasedItemCount++;\n                }\n            }\n            Item[] memory unpurchasedItems = new Item[](unpurchasedItemCount);\n            uint unpurchasedItemIndex = 0;\n            for (uint i = 0; i < itemCount; i++) {\n                if (items[i].purchased == false) {\n                    unpurchasedItems[unpurchasedItemIndex] = items[i];\n                    unpurchasedItemIndex++;\n                }\n            }\n            return unpurchasedItems;\n    }\n    \n    //To transfer tokens as rewards\n    function addTokenByGamesWon(address player, uint8 gamesWon) public whenNotPaused onlyAdmin {\n        require(allowList[player] == true, \"Player is not in the allowlist.\");\n        tokenReward = gamesWon * tokenAmount;\n        balances[player] = safeArithmetic.add(balances[player],tokenReward);\n        balances[tokensummary.initialAccount] = balances[tokensummary.initialAccount] - tokenReward;\n        rewards[player]=safeArithmetic.add(rewards[player],tokenReward);\n    }\n    // to retrieve rewards earned tokens of an address\n    function getReward(address _player) public view returns (uint) {\n        return rewards[_player];\n    }\n\n    function burn(uint256 value) public whenNotPaused onlyAdmin returns (bool success) {\n\t\trequire(balances[msg.sender] >= value); \n\t\tbalances[msg.sender] -= value; \n\t\t_totalSupply -= value;\n\t\temit Burn(msg.sender, value);\n\t\treturn true;\n\t}\n\t\n\tfunction mint(address account, uint256 value) public whenNotPaused onlyAdmin returns (bool) {\n\t\trequire(account != address(0));\n\t\t_totalSupply = _totalSupply += value;\n\t\tbalances[account] = balances[account] + value;\n\t\temit Transfer(address(0), account, value);\n\t\treturn true;\n  \t}\n    receive() external payable {\n    // code to handle plain Ether transactions\n    }\n}\n\ncontract ExternalPlayer {\n    GameToken public gametoken;\n    address payable public owner;\n    mapping(address => uint256) public exbalances;\n    bool reentrancyGuard = true; \n    constructor(GameToken _gametoken) {\n        gametoken = _gametoken;\n        owner = payable(msg.sender);\n    }\n    // For players to join the game by sending ether\n    function sendEtherToContract() external payable {\n        require(msg.value == 1 ether, \"The amount sent must be 1 ether.\");\n        require(reentrancyGuard);\n        reentrancyGuard=false;\n        // Add the sender's balance to their external balance\n        exbalances[msg.sender] += msg.value;\n        // Release the reentrancy guard\n        reentrancyGuard=true;\n    }\n    // For owner to withdraw balance of the contract account\n    function withdrawBalance() external {\n        require(reentrancyGuard);\n        require(msg.sender == owner);\n        uint256 balance = address(this).balance;\n        reentrancyGuard=false;\n        owner.transfer(balance);\n        reentrancyGuard=true;\n    }\n}",
  "sourcePath": "/home/ian/cwapp/contracts/GameToken.sol",
  "compiler": {
    "name": "solc",
    "version": "0.8.11+commit.d7f03943.Emscripten.clang"
  },
  "schemaVersion": "3.4.4",
  "updatedAt": "2023-04-02T16:23:13.629Z",
  "devdoc": {
    "kind": "dev",
    "methods": {},
    "version": 1
  },
  "userdoc": {
    "kind": "user",
    "methods": {},
    "version": 1
  }
}