{
  "contractName": "GameToken",
  "abi": [
    {
      "inputs": [
        {
          "internalType": "address",
          "name": "initialAccount",
          "type": "address"
        },
        {
          "internalType": "uint256",
          "name": "initialBalance",
          "type": "uint256"
        }
      ],
      "stateMutability": "payable",
      "type": "constructor",
      "payable": true
    },
    {
      "anonymous": false,
      "inputs": [
        {
          "indexed": true,
          "internalType": "address",
          "name": "owner",
          "type": "address"
        },
        {
          "indexed": true,
          "internalType": "address",
          "name": "spender",
          "type": "address"
        },
        {
          "indexed": false,
          "internalType": "uint256",
          "name": "value",
          "type": "uint256"
        }
      ],
      "name": "Approval",
      "type": "event"
    },
    {
      "anonymous": false,
      "inputs": [
        {
          "indexed": false,
          "internalType": "address",
          "name": "from",
          "type": "address"
        },
        {
          "indexed": false,
          "internalType": "uint256",
          "name": "value",
          "type": "uint256"
        }
      ],
      "name": "Burn",
      "type": "event"
    },
    {
      "anonymous": false,
      "inputs": [
        {
          "indexed": false,
          "internalType": "address",
          "name": "account",
          "type": "address"
        }
      ],
      "name": "PausedEvt",
      "type": "event"
    },
    {
      "anonymous": false,
      "inputs": [
        {
          "indexed": true,
          "internalType": "address",
          "name": "from",
          "type": "address"
        },
        {
          "indexed": true,
          "internalType": "address",
          "name": "to",
          "type": "address"
        },
        {
          "indexed": false,
          "internalType": "uint256",
          "name": "value",
          "type": "uint256"
        }
      ],
      "name": "Transfer",
      "type": "event"
    },
    {
      "anonymous": false,
      "inputs": [
        {
          "indexed": false,
          "internalType": "address",
          "name": "account",
          "type": "address"
        }
      ],
      "name": "UnpausedEvt",
      "type": "event"
    },
    {
      "inputs": [],
      "name": "DENY_LIST_CODE",
      "outputs": [
        {
          "internalType": "uint8",
          "name": "",
          "type": "uint8"
        }
      ],
      "stateMutability": "view",
      "type": "function",
      "constant": true
    },
    {
      "inputs": [],
      "name": "DENY_LIST_ERROR",
      "outputs": [
        {
          "internalType": "string",
          "name": "",
          "type": "string"
        }
      ],
      "stateMutability": "view",
      "type": "function",
      "constant": true
    },
    {
      "inputs": [],
      "name": "SUCCESS_CODE",
      "outputs": [
        {
          "internalType": "uint8",
          "name": "",
          "type": "uint8"
        }
      ],
      "stateMutability": "view",
      "type": "function",
      "constant": true
    },
    {
      "inputs": [],
      "name": "SUCCESS_MESSAGE",
      "outputs": [
        {
          "internalType": "string",
          "name": "",
          "type": "string"
        }
      ],
      "stateMutability": "view",
      "type": "function",
      "constant": true
    },
    {
      "inputs": [
        {
          "internalType": "address",
          "name": "account",
          "type": "address"
        }
      ],
      "name": "addAdmin",
      "outputs": [],
      "stateMutability": "nonpayable",
      "type": "function"
    },
    {
      "inputs": [
        {
          "internalType": "address",
          "name": "account",
          "type": "address"
        }
      ],
      "name": "addAllowList",
      "outputs": [],
      "stateMutability": "nonpayable",
      "type": "function"
    },
    {
      "inputs": [
        {
          "internalType": "address",
          "name": "account",
          "type": "address"
        }
      ],
      "name": "addGameDeveloper",
      "outputs": [],
      "stateMutability": "nonpayable",
      "type": "function"
    },
    {
      "inputs": [
        {
          "internalType": "address",
          "name": "account",
          "type": "address"
        }
      ],
      "name": "addPlayer",
      "outputs": [],
      "stateMutability": "nonpayable",
      "type": "function"
    },
    {
      "inputs": [
        {
          "internalType": "address",
          "name": "account",
          "type": "address"
        }
      ],
      "name": "isAdmin",
      "outputs": [
        {
          "internalType": "bool",
          "name": "",
          "type": "bool"
        }
      ],
      "stateMutability": "view",
      "type": "function",
      "constant": true
    },
    {
      "inputs": [
        {
          "internalType": "address",
          "name": "account",
          "type": "address"
        }
      ],
      "name": "isAllowList",
      "outputs": [
        {
          "internalType": "bool",
          "name": "",
          "type": "bool"
        }
      ],
      "stateMutability": "view",
      "type": "function",
      "constant": true
    },
    {
      "inputs": [
        {
          "internalType": "address",
          "name": "account",
          "type": "address"
        }
      ],
      "name": "isDeveloper",
      "outputs": [
        {
          "internalType": "bool",
          "name": "",
          "type": "bool"
        }
      ],
      "stateMutability": "view",
      "type": "function",
      "constant": true
    },
    {
      "inputs": [],
      "name": "itemCount",
      "outputs": [
        {
          "internalType": "uint256",
          "name": "",
          "type": "uint256"
        }
      ],
      "stateMutability": "view",
      "type": "function",
      "constant": true
    },
    {
      "inputs": [
        {
          "internalType": "uint256",
          "name": "",
          "type": "uint256"
        }
      ],
      "name": "items",
      "outputs": [
        {
          "internalType": "uint256",
          "name": "id",
          "type": "uint256"
        },
        {
          "internalType": "string",
          "name": "name",
          "type": "string"
        },
        {
          "internalType": "enum Inventory.Damage",
          "name": "damage",
          "type": "uint8"
        },
        {
          "internalType": "uint256",
          "name": "price",
          "type": "uint256"
        },
        {
          "internalType": "address",
          "name": "owner",
          "type": "address"
        },
        {
          "internalType": "bool",
          "name": "purchased",
          "type": "bool"
        }
      ],
      "stateMutability": "view",
      "type": "function",
      "constant": true
    },
    {
      "inputs": [],
      "name": "name",
      "outputs": [
        {
          "internalType": "string",
          "name": "",
          "type": "string"
        }
      ],
      "stateMutability": "view",
      "type": "function",
      "constant": true
    },
    {
      "inputs": [],
      "name": "owner",
      "outputs": [
        {
          "internalType": "address",
          "name": "",
          "type": "address"
        }
      ],
      "stateMutability": "view",
      "type": "function",
      "constant": true
    },
    {
      "inputs": [],
      "name": "pause",
      "outputs": [],
      "stateMutability": "nonpayable",
      "type": "function"
    },
    {
      "inputs": [
        {
          "internalType": "address",
          "name": "account",
          "type": "address"
        }
      ],
      "name": "removeAllowListed",
      "outputs": [],
      "stateMutability": "nonpayable",
      "type": "function"
    },
    {
      "inputs": [],
      "name": "symbol",
      "outputs": [
        {
          "internalType": "string",
          "name": "",
          "type": "string"
        }
      ],
      "stateMutability": "view",
      "type": "function",
      "constant": true
    },
    {
      "inputs": [],
      "name": "tokenAmount",
      "outputs": [
        {
          "internalType": "uint8",
          "name": "",
          "type": "uint8"
        }
      ],
      "stateMutability": "view",
      "type": "function",
      "constant": true
    },
    {
      "inputs": [],
      "name": "tokenReward",
      "outputs": [
        {
          "internalType": "uint8",
          "name": "",
          "type": "uint8"
        }
      ],
      "stateMutability": "view",
      "type": "function",
      "constant": true
    },
    {
      "inputs": [],
      "name": "tokensummary",
      "outputs": [
        {
          "internalType": "address",
          "name": "initialAccount",
          "type": "address"
        },
        {
          "internalType": "string",
          "name": "name",
          "type": "string"
        },
        {
          "internalType": "string",
          "name": "symbol",
          "type": "string"
        }
      ],
      "stateMutability": "view",
      "type": "function",
      "constant": true
    },
    {
      "inputs": [
        {
          "internalType": "address",
          "name": "newOwner",
          "type": "address"
        }
      ],
      "name": "transferOwnership",
      "outputs": [],
      "stateMutability": "nonpayable",
      "type": "function"
    },
    {
      "inputs": [],
      "name": "unpause",
      "outputs": [],
      "stateMutability": "nonpayable",
      "type": "function"
    },
    {
      "stateMutability": "payable",
      "type": "receive",
      "payable": true
    },
    {
      "inputs": [
        {
          "internalType": "address",
          "name": "to",
          "type": "address"
        }
      ],
      "name": "validateTransferRestricted",
      "outputs": [
        {
          "internalType": "uint8",
          "name": "restrictionCode",
          "type": "uint8"
        }
      ],
      "stateMutability": "view",
      "type": "function",
      "constant": true
    },
    {
      "inputs": [
        {
          "internalType": "uint8",
          "name": "restrictionCode",
          "type": "uint8"
        }
      ],
      "name": "messageHandler",
      "outputs": [
        {
          "internalType": "string",
          "name": "message",
          "type": "string"
        }
      ],
      "stateMutability": "pure",
      "type": "function",
      "constant": true
    },
    {
      "inputs": [],
      "name": "totalSupply",
      "outputs": [
        {
          "internalType": "uint256",
          "name": "",
          "type": "uint256"
        }
      ],
      "stateMutability": "view",
      "type": "function",
      "constant": true
    },
    {
      "inputs": [
        {
          "internalType": "address",
          "name": "account",
          "type": "address"
        }
      ],
      "name": "balanceOf",
      "outputs": [
        {
          "internalType": "uint256",
          "name": "",
          "type": "uint256"
        }
      ],
      "stateMutability": "view",
      "type": "function",
      "constant": true
    },
    {
      "inputs": [
        {
          "internalType": "address",
          "name": "to",
          "type": "address"
        },
        {
          "internalType": "uint256",
          "name": "value",
          "type": "uint256"
        }
      ],
      "name": "transfer",
      "outputs": [
        {
          "internalType": "bool",
          "name": "success",
          "type": "bool"
        }
      ],
      "stateMutability": "nonpayable",
      "type": "function"
    },
    {
      "inputs": [
        {
          "internalType": "address",
          "name": "from",
          "type": "address"
        },
        {
          "internalType": "address",
          "name": "spender",
          "type": "address"
        },
        {
          "internalType": "uint256",
          "name": "value",
          "type": "uint256"
        }
      ],
      "name": "transferFrom",
      "outputs": [
        {
          "internalType": "bool",
          "name": "",
          "type": "bool"
        }
      ],
      "stateMutability": "nonpayable",
      "type": "function"
    },
    {
      "inputs": [
        {
          "internalType": "address",
          "name": "owner",
          "type": "address"
        },
        {
          "internalType": "address",
          "name": "spender",
          "type": "address"
        }
      ],
      "name": "allowance",
      "outputs": [
        {
          "internalType": "uint256",
          "name": "",
          "type": "uint256"
        }
      ],
      "stateMutability": "view",
      "type": "function",
      "constant": true
    },
    {
      "inputs": [
        {
          "internalType": "address",
          "name": "spender",
          "type": "address"
        },
        {
          "internalType": "uint256",
          "name": "value",
          "type": "uint256"
        }
      ],
      "name": "approve",
      "outputs": [
        {
          "internalType": "bool",
          "name": "",
          "type": "bool"
        }
      ],
      "stateMutability": "nonpayable",
      "type": "function"
    },
    {
      "inputs": [
        {
          "internalType": "uint256",
          "name": "_id",
          "type": "uint256"
        },
        {
          "internalType": "string",
          "name": "_name",
          "type": "string"
        },
        {
          "internalType": "enum Inventory.Damage",
          "name": "_damage",
          "type": "uint8"
        },
        {
          "internalType": "uint256",
          "name": "_price",
          "type": "uint256"
        }
      ],
      "name": "addItem",
      "outputs": [],
      "stateMutability": "nonpayable",
      "type": "function"
    },
    {
      "inputs": [
        {
          "internalType": "uint256",
          "name": "_id",
          "type": "uint256"
        }
      ],
      "name": "buyItem",
      "outputs": [],
      "stateMutability": "payable",
      "type": "function",
      "payable": true
    },
    {
      "inputs": [
        {
          "internalType": "address",
          "name": "_owner",
          "type": "address"
        }
      ],
      "name": "getItemsByOwner",
      "outputs": [
        {
          "components": [
            {
              "internalType": "uint256",
              "name": "id",
              "type": "uint256"
            },
            {
              "internalType": "string",
              "name": "name",
              "type": "string"
            },
            {
              "internalType": "enum Inventory.Damage",
              "name": "damage",
              "type": "uint8"
            },
            {
              "internalType": "uint256",
              "name": "price",
              "type": "uint256"
            },
            {
              "internalType": "address",
              "name": "owner",
              "type": "address"
            },
            {
              "internalType": "bool",
              "name": "purchased",
              "type": "bool"
            }
          ],
          "internalType": "struct Inventory.Item[]",
          "name": "",
          "type": "tuple[]"
        }
      ],
      "stateMutability": "view",
      "type": "function",
      "constant": true
    },
    {
      "inputs": [],
      "name": "getUnpurchasedItems",
      "outputs": [
        {
          "components": [
            {
              "internalType": "uint256",
              "name": "id",
              "type": "uint256"
            },
            {
              "internalType": "string",
              "name": "name",
              "type": "string"
            },
            {
              "internalType": "enum Inventory.Damage",
              "name": "damage",
              "type": "uint8"
            },
            {
              "internalType": "uint256",
              "name": "price",
              "type": "uint256"
            },
            {
              "internalType": "address",
              "name": "owner",
              "type": "address"
            },
            {
              "internalType": "bool",
              "name": "purchased",
              "type": "bool"
            }
          ],
          "internalType": "struct Inventory.Item[]",
          "name": "",
          "type": "tuple[]"
        }
      ],
      "stateMutability": "view",
      "type": "function",
      "constant": true
    },
    {
      "inputs": [
        {
          "internalType": "address",
          "name": "player",
          "type": "address"
        },
        {
          "internalType": "uint8",
          "name": "gamesWon",
          "type": "uint8"
        }
      ],
      "name": "addTokenByGamesWon",
      "outputs": [],
      "stateMutability": "nonpayable",
      "type": "function"
    },
    {
      "inputs": [
        {
          "internalType": "address",
          "name": "_player",
          "type": "address"
        }
      ],
      "name": "getReward",
      "outputs": [
        {
          "internalType": "uint256",
          "name": "",
          "type": "uint256"
        }
      ],
      "stateMutability": "view",
      "type": "function",
      "constant": true
    },
    {
      "inputs": [
        {
          "internalType": "uint256",
          "name": "value",
          "type": "uint256"
        }
      ],
      "name": "burn",
      "outputs": [
        {
          "internalType": "bool",
          "name": "success",
          "type": "bool"
        }
      ],
      "stateMutability": "nonpayable",
      "type": "function"
    },
    {
      "inputs": [
        {
          "internalType": "address",
          "name": "account",
          "type": "address"
        },
        {
          "internalType": "uint256",
          "name": "value",
          "type": "uint256"
        }
      ],
      "name": "mint",
      "outputs": [
        {
          "internalType": "bool",
          "name": "",
          "type": "bool"
        }
      ],
      "stateMutability": "nonpayable",
      "type": "function"
    }
  ],
  "bytecode": "0x60806040526040518060400160405280600581526020017f4b72694465000000000000000000000000000000000000000000000000000000815250600690805190602001906200005192919062000579565b506040518060400160405280600281526020017f4b44000000000000000000000000000000000000000000000000000000000000815250600790805190602001906200009f92919062000579565b50600f601260006101000a81548160ff021916908360ff160217905550604051620047e6380380620047e68339818101604052810190620000e19190620006ce565b336000806101000a81548173ffffffffffffffffffffffffffffffffffffffff021916908373ffffffffffffffffffffffffffffffffffffffff16021790555060018060003373ffffffffffffffffffffffffffffffffffffffff1673ffffffffffffffffffffffffffffffffffffffff16815260200190815260200160002060006101000a81548160ff0219169083151502179055506001600260003373ffffffffffffffffffffffffffffffffffffffff1673ffffffffffffffffffffffffffffffffffffffff16815260200190815260200160002060006101000a81548160ff0219169083151502179055506000600560006101000a81548160ff021916908315150217905550620001fc826200042e60201b60201c565b80600c60008473ffffffffffffffffffffffffffffffffffffffff1673ffffffffffffffffffffffffffffffffffffffff168152602001908152602001600020819055508060118190555060405180606001604052808373ffffffffffffffffffffffffffffffffffffffff168152602001600680546200027d9062000744565b80601f0160208091040260200160405190810160405280929190818152602001828054620002ab9062000744565b8015620002fc5780601f10620002d057610100808354040283529160200191620002fc565b820191906000526020600020905b815481529060010190602001808311620002de57829003601f168201915b5050505050815260200160078054620003159062000744565b80601f0160208091040260200160405190810160405280929190818152602001828054620003439062000744565b8015620003945780601f10620003685761010080835404028352916020019162000394565b820191906000526020600020905b8154815290600101906020018083116200037657829003601f168201915b5050505050815250600960008201518160000160006101000a81548173ffffffffffffffffffffffffffffffffffffffff021916908373ffffffffffffffffffffffffffffffffffffffff16021790555060208201518160010190805190602001906200040392919062000579565b5060408201518160020190805190602001906200042292919062000579565b5090505050506200077a565b60011515600160003373ffffffffffffffffffffffffffffffffffffffff1673ffffffffffffffffffffffffffffffffffffffff16815260200190815260200160002060009054906101000a900460ff161515146200048c57600080fd5b600073ffffffffffffffffffffffffffffffffffffffff168173ffffffffffffffffffffffffffffffffffffffff1614158015620005145750600460008273ffffffffffffffffffffffffffffffffffffffff1673ffffffffffffffffffffffffffffffffffffffff16815260200190815260200160002060009054906101000a900460ff16155b6200051e57600080fd5b6001600460008373ffffffffffffffffffffffffffffffffffffffff1673ffffffffffffffffffffffffffffffffffffffff16815260200190815260200160002060006101000a81548160ff02191690831515021790555050565b828054620005879062000744565b90600052602060002090601f016020900481019282620005ab5760008555620005f7565b82601f10620005c657805160ff1916838001178555620005f7565b82800160010185558215620005f7579182015b82811115620005f6578251825591602001919060010190620005d9565b5b5090506200060691906200060a565b5090565b5b80821115620006255760008160009055506001016200060b565b5090565b600080fd5b600073ffffffffffffffffffffffffffffffffffffffff82169050919050565b60006200065b826200062e565b9050919050565b6200066d816200064e565b81146200067957600080fd5b50565b6000815190506200068d8162000662565b92915050565b6000819050919050565b620006a88162000693565b8114620006b457600080fd5b50565b600081519050620006c8816200069d565b92915050565b60008060408385031215620006e857620006e762000629565b5b6000620006f8858286016200067c565b92505060206200070b85828601620006b7565b9150509250929050565b7f4e487b7100000000000000000000000000000000000000000000000000000000600052602260045260246000fd5b600060028204905060018216806200075d57607f821691505b6020821081141562000774576200077362000715565b5b50919050565b61405c806200078a6000396000f3fe6080604052600436106102345760003560e01c806370a082311161012e578063b1275f9a116100ab578063e7fb74c71161006f578063e7fb74c7146108c3578063eec7faa1146108df578063f2fde38b1461090a578063f5964e0814610933578063f86b3930146109705761023b565b8063b1275f9a146107b3578063bfb231d2146107dc578063c00007b01461081e578063dd62ed3e1461085b578063e7984d17146108985761023b565b80638da5cb5b116100f25780638da5cb5b146106ba5780639033cb28146106e557806395d89b41146107225780639da211671461074d578063a9059cbb146107765761023b565b806370a08231146105e7578063747b2ccb146106245780637d474527146106515780638456cb591461067a578063862e6dff146106915761023b565b80632ca8730a116101bc5780634940c5fb116101805780634940c5fb146105025780635eca4a701461052b5780636bfb0d01146105685780636e66f6e91461059357806370480275146105be5761023b565b80632ca8730a146104095780633f4ba83a1461043457806340c10f191461044b57806342966c681461048857806343f432d5146104c55761023b565b806318160ddd1161020357806318160ddd146102fe57806318ac685b1461032957806323b872dd1461035257806324d7806c1461038f5780632c67a8e5146103cc5761023b565b806306fdde0314610240578063095ea7b31461026b5780630cb8b89c146102a85780630e969a05146102d35761023b565b3661023b57005b600080fd5b34801561024c57600080fd5b5061025561099b565b60405161026291906133e5565b60405180910390f35b34801561027757600080fd5b50610292600480360381019061028d91906134af565b610a29565b60405161029f919061350a565b60405180910390f35b3480156102b457600080fd5b506102bd610b54565b6040516102ca91906133e5565b60405180910390f35b3480156102df57600080fd5b506102e8610b70565b6040516102f59190613541565b60405180910390f35b34801561030a57600080fd5b50610313610b75565b604051610320919061356b565b60405180910390f35b34801561033557600080fd5b50610350600480360381019061034b91906135b2565b610b7f565b005b34801561035e57600080fd5b50610379600480360381019061037491906135f2565b610ee8565b604051610386919061350a565b60405180910390f35b34801561039b57600080fd5b506103b660048036038101906103b19190613645565b61130e565b6040516103c3919061350a565b60405180910390f35b3480156103d857600080fd5b506103f360048036038101906103ee9190613645565b6113bd565b60405161040091906138ab565b60405180910390f35b34801561041557600080fd5b5061041e6116e6565b60405161042b91906138ab565b60405180910390f35b34801561044057600080fd5b50610449611999565b005b34801561045757600080fd5b50610472600480360381019061046d91906134af565b611a63565b60405161047f919061350a565b60405180910390f35b34801561049457600080fd5b506104af60048036038101906104aa91906138cd565b611c32565b6040516104bc919061350a565b60405180910390f35b3480156104d157600080fd5b506104ec60048036038101906104e791906138fa565b611da8565b6040516104f991906133e5565b60405180910390f35b34801561050e57600080fd5b5061052960048036038101906105249190613645565b611e27565b005b34801561053757600080fd5b50610552600480360381019061054d9190613645565b611f6f565b60405161055f919061350a565b60405180910390f35b34801561057457600080fd5b5061057d61201e565b60405161058a919061356b565b60405180910390f35b34801561059f57600080fd5b506105a8612024565b6040516105b59190613541565b60405180910390f35b3480156105ca57600080fd5b506105e560048036038101906105e09190613645565b612037565b005b3480156105f357600080fd5b5061060e60048036038101906106099190613645565b612179565b60405161061b919061356b565b60405180910390f35b34801561063057600080fd5b506106396121c2565b60405161064893929190613936565b60405180910390f35b34801561065d57600080fd5b5061067860048036038101906106739190613645565b61230a565b005b34801561068657600080fd5b5061068f612451565b005b34801561069d57600080fd5b506106b860048036038101906106b39190613ad5565b61251c565b005b3480156106c657600080fd5b506106cf6126cf565b6040516106dc9190613b58565b60405180910390f35b3480156106f157600080fd5b5061070c60048036038101906107079190613645565b6126f3565b6040516107199190613541565b60405180910390f35b34801561072e57600080fd5b50610737612715565b60405161074491906133e5565b60405180910390f35b34801561075957600080fd5b50610774600480360381019061076f9190613645565b6127a3565b005b34801561078257600080fd5b5061079d600480360381019061079891906134af565b6128eb565b6040516107aa919061350a565b60405180910390f35b3480156107bf57600080fd5b506107da60048036038101906107d59190613645565b612b7f565b005b3480156107e857600080fd5b5061080360048036038101906107fe91906138cd565b612cc7565b60405161081596959493929190613b82565b60405180910390f35b34801561082a57600080fd5b5061084560048036038101906108409190613645565b612dc5565b604051610852919061356b565b60405180910390f35b34801561086757600080fd5b50610882600480360381019061087d9190613bea565b612e0e565b60405161088f919061356b565b60405180910390f35b3480156108a457600080fd5b506108ad612e95565b6040516108ba91906133e5565b60405180910390f35b6108dd60048036038101906108d891906138cd565b612ece565b005b3480156108eb57600080fd5b506108f4613114565b6040516109019190613541565b60405180910390f35b34801561091657600080fd5b50610931600480360381019061092c9190613645565b613127565b005b34801561093f57600080fd5b5061095a60048036038101906109559190613645565b6131c2565b604051610967919061350a565b60405180910390f35b34801561097c57600080fd5b50610985613218565b6040516109929190613541565b60405180910390f35b600680546109a890613c59565b80601f01602080910402602001604051908101604052809291908181526020018280546109d490613c59565b8015610a215780601f106109f657610100808354040283529160200191610a21565b820191906000526020600020905b815481529060010190602001808311610a0457829003601f168201915b505050505081565b60008073ffffffffffffffffffffffffffffffffffffffff168373ffffffffffffffffffffffffffffffffffffffff161415610a6457600080fd5b81600d60003373ffffffffffffffffffffffffffffffffffffffff1673ffffffffffffffffffffffffffffffffffffffff16815260200190815260200160002060008573ffffffffffffffffffffffffffffffffffffffff1673ffffffffffffffffffffffffffffffffffffffff168152602001908152602001600020819055508273ffffffffffffffffffffffffffffffffffffffff163373ffffffffffffffffffffffffffffffffffffffff167f8c5be1e5ebec7d5bd14f71427d1e84f3dd0314c0f7b2291e5b200ac8c7c3b92584604051610b42919061356b565b60405180910390a36001905092915050565b6040518060600160405280602781526020016140006027913981565b600081565b6000601154905090565b600560009054906101000a900460ff1615610b9957600080fd5b60011515600160003373ffffffffffffffffffffffffffffffffffffffff1673ffffffffffffffffffffffffffffffffffffffff16815260200190815260200160002060009054906101000a900460ff16151514610bf657600080fd5b60011515600460008473ffffffffffffffffffffffffffffffffffffffff1673ffffffffffffffffffffffffffffffffffffffff16815260200190815260200160002060009054906101000a900460ff16151514610c89576040517f08c379a0000000000000000000000000000000000000000000000000000000008152600401610c8090613cd7565b60405180910390fd5b601260009054906101000a900460ff1681610ca49190613d26565b601260016101000a81548160ff021916908360ff160217905550610d19600c60008473ffffffffffffffffffffffffffffffffffffffff1673ffffffffffffffffffffffffffffffffffffffff16815260200190815260200160002054601260019054906101000a900460ff1660ff1661321d565b600c60008473ffffffffffffffffffffffffffffffffffffffff1673ffffffffffffffffffffffffffffffffffffffff16815260200190815260200160002081905550601260019054906101000a900460ff1660ff16600c6000600960000160009054906101000a900473ffffffffffffffffffffffffffffffffffffffff1673ffffffffffffffffffffffffffffffffffffffff1673ffffffffffffffffffffffffffffffffffffffff16815260200190815260200160002054610dde9190613d61565b600c6000600960000160009054906101000a900473ffffffffffffffffffffffffffffffffffffffff1673ffffffffffffffffffffffffffffffffffffffff1673ffffffffffffffffffffffffffffffffffffffff16815260200190815260200160002081905550610ea1601060008473ffffffffffffffffffffffffffffffffffffffff1673ffffffffffffffffffffffffffffffffffffffff16815260200190815260200160002054601260019054906101000a900460ff1660ff1661321d565b601060008473ffffffffffffffffffffffffffffffffffffffff1673ffffffffffffffffffffffffffffffffffffffff168152602001908152602001600020819055505050565b60008383836000610ef8836126f3565b9050600060ff168160ff1614610f0d82611da8565b90610f4e576040517f08c379a0000000000000000000000000000000000000000000000000000000008152600401610f4591906133e5565b60405180910390fd5b50600560009054906101000a900460ff1615610f6957600080fd5b600073ffffffffffffffffffffffffffffffffffffffff168773ffffffffffffffffffffffffffffffffffffffff1614158015610fe55750600c60008973ffffffffffffffffffffffffffffffffffffffff1673ffffffffffffffffffffffffffffffffffffffff168152602001908152602001600020548611155b801561106d5750600d60008973ffffffffffffffffffffffffffffffffffffffff1673ffffffffffffffffffffffffffffffffffffffff16815260200190815260200160002060003373ffffffffffffffffffffffffffffffffffffffff1673ffffffffffffffffffffffffffffffffffffffff168152602001908152602001600020548611155b61107657600080fd5b85600c60008a73ffffffffffffffffffffffffffffffffffffffff1673ffffffffffffffffffffffffffffffffffffffff168152602001908152602001600020546110c19190613d61565b600c60008a73ffffffffffffffffffffffffffffffffffffffff1673ffffffffffffffffffffffffffffffffffffffff1681526020019081526020016000208190555085600c60008973ffffffffffffffffffffffffffffffffffffffff1673ffffffffffffffffffffffffffffffffffffffff1681526020019081526020016000205461114f9190613d95565b600c60008973ffffffffffffffffffffffffffffffffffffffff1673ffffffffffffffffffffffffffffffffffffffff1681526020019081526020016000208190555085600d60008a73ffffffffffffffffffffffffffffffffffffffff1673ffffffffffffffffffffffffffffffffffffffff16815260200190815260200160002060003373ffffffffffffffffffffffffffffffffffffffff1673ffffffffffffffffffffffffffffffffffffffff1681526020019081526020016000205461121a9190613d61565b600d60008a73ffffffffffffffffffffffffffffffffffffffff1673ffffffffffffffffffffffffffffffffffffffff16815260200190815260200160002060003373ffffffffffffffffffffffffffffffffffffffff1673ffffffffffffffffffffffffffffffffffffffff168152602001908152602001600020819055508673ffffffffffffffffffffffffffffffffffffffff168873ffffffffffffffffffffffffffffffffffffffff167fddf252ad1be2c89b69c2b068fc378daa952ba7f163c4a11628f55a4df523b3ef886040516112f7919061356b565b60405180910390a360019450505050509392505050565b60008060009054906101000a900473ffffffffffffffffffffffffffffffffffffffff1673ffffffffffffffffffffffffffffffffffffffff163373ffffffffffffffffffffffffffffffffffffffff161461136957600080fd5b600160008373ffffffffffffffffffffffffffffffffffffffff1673ffffffffffffffffffffffffffffffffffffffff16815260200190815260200160002060009054906101000a900460ff169050919050565b60606000805b600f54811015611459578373ffffffffffffffffffffffffffffffffffffffff16600e600083815260200190815260200160002060040160009054906101000a900473ffffffffffffffffffffffffffffffffffffffff1673ffffffffffffffffffffffffffffffffffffffff16141561144657818061144290613deb565b9250505b808061145190613deb565b9150506113c3565b5060008167ffffffffffffffff81111561147657611475613985565b5b6040519080825280602002602001820160405280156114af57816020015b61149c613249565b8152602001906001900390816114945790505b5090506000805b600f548110156116da578573ffffffffffffffffffffffffffffffffffffffff16600e600083815260200190815260200160002060040160009054906101000a900473ffffffffffffffffffffffffffffffffffffffff1673ffffffffffffffffffffffffffffffffffffffff1614156116c757600e60008281526020019081526020016000206040518060c00160405290816000820154815260200160018201805461156290613c59565b80601f016020809104026020016040519081016040528092919081815260200182805461158e90613c59565b80156115db5780601f106115b0576101008083540402835291602001916115db565b820191906000526020600020905b8154815290600101906020018083116115be57829003601f168201915b505050505081526020016002820160009054906101000a900460ff166006811115611609576116086136f7565b5b600681111561161b5761161a6136f7565b5b8152602001600382015481526020016004820160009054906101000a900473ffffffffffffffffffffffffffffffffffffffff1673ffffffffffffffffffffffffffffffffffffffff1673ffffffffffffffffffffffffffffffffffffffff1681526020016004820160149054906101000a900460ff1615151515815250508383815181106116ad576116ac613e34565b5b602002602001018190525081806116c390613deb565b9250505b80806116d290613deb565b9150506114b6565b50819350505050919050565b60606000805b600f548110156117485760001515600e600083815260200190815260200160002060040160149054906101000a900460ff161515141561173557818061173190613deb565b9250505b808061174090613deb565b9150506116ec565b5060008167ffffffffffffffff81111561176557611764613985565b5b60405190808252806020026020018201604052801561179e57816020015b61178b613249565b8152602001906001900390816117835790505b5090506000805b600f5481101561198f5760001515600e600083815260200190815260200160002060040160149054906101000a900460ff161515141561197c57600e60008281526020019081526020016000206040518060c00160405290816000820154815260200160018201805461181790613c59565b80601f016020809104026020016040519081016040528092919081815260200182805461184390613c59565b80156118905780601f1061186557610100808354040283529160200191611890565b820191906000526020600020905b81548152906001019060200180831161187357829003601f168201915b505050505081526020016002820160009054906101000a900460ff1660068111156118be576118bd6136f7565b5b60068111156118d0576118cf6136f7565b5b8152602001600382015481526020016004820160009054906101000a900473ffffffffffffffffffffffffffffffffffffffff1673ffffffffffffffffffffffffffffffffffffffff1673ffffffffffffffffffffffffffffffffffffffff1681526020016004820160149054906101000a900460ff16151515158152505083838151811061196257611961613e34565b5b6020026020010181905250818061197890613deb565b9250505b808061198790613deb565b9150506117a5565b5081935050505090565b60011515600160003373ffffffffffffffffffffffffffffffffffffffff1673ffffffffffffffffffffffffffffffffffffffff16815260200190815260200160002060009054906101000a900460ff161515146119f657600080fd5b600560009054906101000a900460ff16611a0f57600080fd5b6000600560006101000a81548160ff0219169083151502179055507f5b458f30661b64d53169f3d852fe57bbaf55cb8f5615af19114f2c9b7bb52c0e33604051611a599190613b58565b60405180910390a1565b6000600560009054906101000a900460ff1615611a7f57600080fd5b60011515600160003373ffffffffffffffffffffffffffffffffffffffff1673ffffffffffffffffffffffffffffffffffffffff16815260200190815260200160002060009054906101000a900460ff16151514611adc57600080fd5b600073ffffffffffffffffffffffffffffffffffffffff168373ffffffffffffffffffffffffffffffffffffffff161415611b1657600080fd5b8160116000828254611b289190613d95565b92505081905560118190555081600c60008573ffffffffffffffffffffffffffffffffffffffff1673ffffffffffffffffffffffffffffffffffffffff16815260200190815260200160002054611b7f9190613d95565b600c60008573ffffffffffffffffffffffffffffffffffffffff1673ffffffffffffffffffffffffffffffffffffffff168152602001908152602001600020819055508273ffffffffffffffffffffffffffffffffffffffff16600073ffffffffffffffffffffffffffffffffffffffff167fddf252ad1be2c89b69c2b068fc378daa952ba7f163c4a11628f55a4df523b3ef84604051611c20919061356b565b60405180910390a36001905092915050565b6000600560009054906101000a900460ff1615611c4e57600080fd5b60011515600160003373ffffffffffffffffffffffffffffffffffffffff1673ffffffffffffffffffffffffffffffffffffffff16815260200190815260200160002060009054906101000a900460ff16151514611cab57600080fd5b81600c60003373ffffffffffffffffffffffffffffffffffffffff1673ffffffffffffffffffffffffffffffffffffffff168152602001908152602001600020541015611cf757600080fd5b81600c60003373ffffffffffffffffffffffffffffffffffffffff1673ffffffffffffffffffffffffffffffffffffffff1681526020019081526020016000206000828254611d469190613d61565b925050819055508160116000828254611d5f9190613d61565b925050819055507fcc16f5dbb4873280815c1ee09dbd06736cffcc184412cf7a71a0fdb75d397ca53383604051611d97929190613e63565b60405180910390a160019050919050565b6060600060ff168260ff161415611df6576040518060400160405280600781526020017f53554343455353000000000000000000000000000000000000000000000000008152509050611e22565b600160ff168260ff161415611e21576040518060600160405280602781526020016140006027913990505b5b919050565b60011515600160003373ffffffffffffffffffffffffffffffffffffffff1673ffffffffffffffffffffffffffffffffffffffff16815260200190815260200160002060009054906101000a900460ff16151514611e8457600080fd5b600073ffffffffffffffffffffffffffffffffffffffff168173ffffffffffffffffffffffffffffffffffffffff1614158015611f0b5750600260008273ffffffffffffffffffffffffffffffffffffffff1673ffffffffffffffffffffffffffffffffffffffff16815260200190815260200160002060009054906101000a900460ff16155b611f1457600080fd5b6001600260008373ffffffffffffffffffffffffffffffffffffffff1673ffffffffffffffffffffffffffffffffffffffff16815260200190815260200160002060006101000a81548160ff02191690831515021790555050565b60008060009054906101000a900473ffffffffffffffffffffffffffffffffffffffff1673ffffffffffffffffffffffffffffffffffffffff163373ffffffffffffffffffffffffffffffffffffffff1614611fca57600080fd5b600260008373ffffffffffffffffffffffffffffffffffffffff1673ffffffffffffffffffffffffffffffffffffffff16815260200190815260200160002060009054906101000a900460ff169050919050565b600f5481565b601260019054906101000a900460ff1681565b60008054906101000a900473ffffffffffffffffffffffffffffffffffffffff1673ffffffffffffffffffffffffffffffffffffffff163373ffffffffffffffffffffffffffffffffffffffff161461208f57600080fd5b600073ffffffffffffffffffffffffffffffffffffffff168173ffffffffffffffffffffffffffffffffffffffff16141580156121165750600160008273ffffffffffffffffffffffffffffffffffffffff1673ffffffffffffffffffffffffffffffffffffffff16815260200190815260200160002060009054906101000a900460ff16155b61211f57600080fd5b60018060008373ffffffffffffffffffffffffffffffffffffffff1673ffffffffffffffffffffffffffffffffffffffff16815260200190815260200160002060006101000a81548160ff02191690831515021790555050565b6000600c60008373ffffffffffffffffffffffffffffffffffffffff1673ffffffffffffffffffffffffffffffffffffffff168152602001908152602001600020549050919050565b60098060000160009054906101000a900473ffffffffffffffffffffffffffffffffffffffff16908060010180546121f990613c59565b80601f016020809104026020016040519081016040528092919081815260200182805461222590613c59565b80156122725780601f1061224757610100808354040283529160200191612272565b820191906000526020600020905b81548152906001019060200180831161225557829003601f168201915b50505050509080600201805461228790613c59565b80601f01602080910402602001604051908101604052809291908181526020018280546122b390613c59565b80156123005780601f106122d557610100808354040283529160200191612300565b820191906000526020600020905b8154815290600101906020018083116122e357829003601f168201915b5050505050905083565b60011515600160003373ffffffffffffffffffffffffffffffffffffffff1673ffffffffffffffffffffffffffffffffffffffff16815260200190815260200160002060009054906101000a900460ff1615151461236757600080fd5b600073ffffffffffffffffffffffffffffffffffffffff168173ffffffffffffffffffffffffffffffffffffffff16141580156123ed5750600460008273ffffffffffffffffffffffffffffffffffffffff1673ffffffffffffffffffffffffffffffffffffffff16815260200190815260200160002060009054906101000a900460ff165b6123f657600080fd5b6000600460008373ffffffffffffffffffffffffffffffffffffffff1673ffffffffffffffffffffffffffffffffffffffff16815260200190815260200160002060006101000a81548160ff02191690831515021790555050565b60011515600160003373ffffffffffffffffffffffffffffffffffffffff1673ffffffffffffffffffffffffffffffffffffffff16815260200190815260200160002060009054906101000a900460ff161515146124ae57600080fd5b600560009054906101000a900460ff16156124c857600080fd5b6001600560006101000a81548160ff0219169083151502179055507f507601cb28731d1f402d3760797e1a1b121a6b956be4fef723175be45cce5663336040516125129190613b58565b60405180910390a1565b60011515600260003373ffffffffffffffffffffffffffffffffffffffff1673ffffffffffffffffffffffffffffffffffffffff16815260200190815260200160002060009054906101000a900460ff1615151461257957600080fd5b6040518060c001604052808581526020018481526020018360068111156125a3576125a26136f7565b5b81526020018281526020013373ffffffffffffffffffffffffffffffffffffffff16815260200160001515815250600e6000600f54815260200190815260200160002060008201518160000155602082015181600101908051906020019061260c9291906132a9565b5060408201518160020160006101000a81548160ff02191690836006811115612638576126376136f7565b5b02179055506060820151816003015560808201518160040160006101000a81548173ffffffffffffffffffffffffffffffffffffffff021916908373ffffffffffffffffffffffffffffffffffffffff16021790555060a08201518160040160146101000a81548160ff021916908315150217905550905050600f60008154809291906126c490613deb565b919050555050505050565b60008054906101000a900473ffffffffffffffffffffffffffffffffffffffff1681565b60006126fe826131c2565b61270b5760019050612710565b600090505b919050565b6007805461272290613c59565b80601f016020809104026020016040519081016040528092919081815260200182805461274e90613c59565b801561279b5780601f106127705761010080835404028352916020019161279b565b820191906000526020600020905b81548152906001019060200180831161277e57829003601f168201915b505050505081565b60011515600160003373ffffffffffffffffffffffffffffffffffffffff1673ffffffffffffffffffffffffffffffffffffffff16815260200190815260200160002060009054906101000a900460ff1615151461280057600080fd5b600073ffffffffffffffffffffffffffffffffffffffff168173ffffffffffffffffffffffffffffffffffffffff16141580156128875750600460008273ffffffffffffffffffffffffffffffffffffffff1673ffffffffffffffffffffffffffffffffffffffff16815260200190815260200160002060009054906101000a900460ff16155b61289057600080fd5b6001600460008373ffffffffffffffffffffffffffffffffffffffff1673ffffffffffffffffffffffffffffffffffffffff16815260200190815260200160002060006101000a81548160ff02191690831515021790555050565b600033838360006128fb836126f3565b9050600060ff168160ff161461291082611da8565b90612951576040517f08c379a000000000000000000000000000000000000000000000000000000000815260040161294891906133e5565b60405180910390fd5b50600560009054906101000a900460ff161561296c57600080fd5b600073ffffffffffffffffffffffffffffffffffffffff168773ffffffffffffffffffffffffffffffffffffffff16141580156129e7575085600c60003373ffffffffffffffffffffffffffffffffffffffff1673ffffffffffffffffffffffffffffffffffffffff16815260200190815260200160002054115b6129f057600080fd5b85600c60003373ffffffffffffffffffffffffffffffffffffffff1673ffffffffffffffffffffffffffffffffffffffff16815260200190815260200160002054612a3b9190613d61565b600c60003373ffffffffffffffffffffffffffffffffffffffff1673ffffffffffffffffffffffffffffffffffffffff1681526020019081526020016000208190555085600c60008973ffffffffffffffffffffffffffffffffffffffff1673ffffffffffffffffffffffffffffffffffffffff16815260200190815260200160002054612ac99190613d95565b600c60008973ffffffffffffffffffffffffffffffffffffffff1673ffffffffffffffffffffffffffffffffffffffff168152602001908152602001600020819055508673ffffffffffffffffffffffffffffffffffffffff163373ffffffffffffffffffffffffffffffffffffffff167fddf252ad1be2c89b69c2b068fc378daa952ba7f163c4a11628f55a4df523b3ef88604051612b69919061356b565b60405180910390a3600194505050505092915050565b60011515600160003373ffffffffffffffffffffffffffffffffffffffff1673ffffffffffffffffffffffffffffffffffffffff16815260200190815260200160002060009054906101000a900460ff16151514612bdc57600080fd5b600073ffffffffffffffffffffffffffffffffffffffff168173ffffffffffffffffffffffffffffffffffffffff1614158015612c635750600360008273ffffffffffffffffffffffffffffffffffffffff1673ffffffffffffffffffffffffffffffffffffffff16815260200190815260200160002060009054906101000a900460ff16155b612c6c57600080fd5b6001600360008373ffffffffffffffffffffffffffffffffffffffff1673ffffffffffffffffffffffffffffffffffffffff16815260200190815260200160002060006101000a81548160ff02191690831515021790555050565b600e602052806000526040600020600091509050806000015490806001018054612cf090613c59565b80601f0160208091040260200160405190810160405280929190818152602001828054612d1c90613c59565b8015612d695780601f10612d3e57610100808354040283529160200191612d69565b820191906000526020600020905b815481529060010190602001808311612d4c57829003601f168201915b5050505050908060020160009054906101000a900460ff16908060030154908060040160009054906101000a900473ffffffffffffffffffffffffffffffffffffffff16908060040160149054906101000a900460ff16905086565b6000601060008373ffffffffffffffffffffffffffffffffffffffff1673ffffffffffffffffffffffffffffffffffffffff168152602001908152602001600020549050919050565b6000600d60008473ffffffffffffffffffffffffffffffffffffffff1673ffffffffffffffffffffffffffffffffffffffff16815260200190815260200160002060008373ffffffffffffffffffffffffffffffffffffffff1673ffffffffffffffffffffffffffffffffffffffff16815260200190815260200160002054905092915050565b6040518060400160405280600781526020017f535543434553530000000000000000000000000000000000000000000000000081525081565b6000600e6000838152602001908152602001600020600001541415612f28576040517f08c379a0000000000000000000000000000000000000000000000000000000008152600401612f1f90613ed8565b60405180910390fd5b60001515600e600083815260200190815260200160002060040160149054906101000a900460ff16151514612f92576040517f08c379a0000000000000000000000000000000000000000000000000000000008152600401612f8990613f44565b60405180910390fd5b600e600082815260200190815260200160002060030154600c60003373ffffffffffffffffffffffffffffffffffffffff1673ffffffffffffffffffffffffffffffffffffffff16815260200190815260200160002054101561302a576040517f08c379a000000000000000000000000000000000000000000000000000000000815260040161302190613fb0565b60405180910390fd5b6000600e600083815260200190815260200160002060040160009054906101000a900473ffffffffffffffffffffffffffffffffffffffff1690506000600e600084815260200190815260200160002060030154905061308a82826128eb565b5033600e600085815260200190815260200160002060040160006101000a81548173ffffffffffffffffffffffffffffffffffffffff021916908373ffffffffffffffffffffffffffffffffffffffff1602179055506001600e600085815260200190815260200160002060040160146101000a81548160ff021916908315150217905550505050565b601260009054906101000a900460ff1681565b60008054906101000a900473ffffffffffffffffffffffffffffffffffffffff1673ffffffffffffffffffffffffffffffffffffffff163373ffffffffffffffffffffffffffffffffffffffff161461317f57600080fd5b806000806101000a81548173ffffffffffffffffffffffffffffffffffffffff021916908373ffffffffffffffffffffffffffffffffffffffff16021790555050565b6000600460008373ffffffffffffffffffffffffffffffffffffffff1673ffffffffffffffffffffffffffffffffffffffff16815260200190815260200160002060009054906101000a900460ff169050919050565b600181565b600080828461322c9190613d95565b90508381101561323f5761323e613fd0565b5b8091505092915050565b6040518060c00160405280600081526020016060815260200160006006811115613276576132756136f7565b5b815260200160008152602001600073ffffffffffffffffffffffffffffffffffffffff1681526020016000151581525090565b8280546132b590613c59565b90600052602060002090601f0160209004810192826132d7576000855561331e565b82601f106132f057805160ff191683800117855561331e565b8280016001018555821561331e579182015b8281111561331d578251825591602001919060010190613302565b5b50905061332b919061332f565b5090565b5b80821115613348576000816000905550600101613330565b5090565b600081519050919050565b600082825260208201905092915050565b60005b8381101561338657808201518184015260208101905061336b565b83811115613395576000848401525b50505050565b6000601f19601f8301169050919050565b60006133b78261334c565b6133c18185613357565b93506133d1818560208601613368565b6133da8161339b565b840191505092915050565b600060208201905081810360008301526133ff81846133ac565b905092915050565b6000604051905090565b600080fd5b600080fd5b600073ffffffffffffffffffffffffffffffffffffffff82169050919050565b60006134468261341b565b9050919050565b6134568161343b565b811461346157600080fd5b50565b6000813590506134738161344d565b92915050565b6000819050919050565b61348c81613479565b811461349757600080fd5b50565b6000813590506134a981613483565b92915050565b600080604083850312156134c6576134c5613411565b5b60006134d485828601613464565b92505060206134e58582860161349a565b9150509250929050565b60008115159050919050565b613504816134ef565b82525050565b600060208201905061351f60008301846134fb565b92915050565b600060ff82169050919050565b61353b81613525565b82525050565b60006020820190506135566000830184613532565b92915050565b61356581613479565b82525050565b6000602082019050613580600083018461355c565b92915050565b61358f81613525565b811461359a57600080fd5b50565b6000813590506135ac81613586565b92915050565b600080604083850312156135c9576135c8613411565b5b60006135d785828601613464565b92505060206135e88582860161359d565b9150509250929050565b60008060006060848603121561360b5761360a613411565b5b600061361986828701613464565b935050602061362a86828701613464565b925050604061363b8682870161349a565b9150509250925092565b60006020828403121561365b5761365a613411565b5b600061366984828501613464565b91505092915050565b600081519050919050565b600082825260208201905092915050565b6000819050602082019050919050565b6136a781613479565b82525050565b600082825260208201905092915050565b60006136c98261334c565b6136d381856136ad565b93506136e3818560208601613368565b6136ec8161339b565b840191505092915050565b7f4e487b7100000000000000000000000000000000000000000000000000000000600052602160045260246000fd5b60078110613737576137366136f7565b5b50565b600081905061374882613726565b919050565b60006137588261373a565b9050919050565b6137688161374d565b82525050565b6137778161343b565b82525050565b613786816134ef565b82525050565b600060c0830160008301516137a4600086018261369e565b50602083015184820360208601526137bc82826136be565b91505060408301516137d1604086018261375f565b5060608301516137e4606086018261369e565b5060808301516137f7608086018261376e565b5060a083015161380a60a086018261377d565b508091505092915050565b6000613821838361378c565b905092915050565b6000602082019050919050565b600061384182613672565b61384b818561367d565b93508360208202850161385d8561368e565b8060005b85811015613899578484038952815161387a8582613815565b945061388583613829565b925060208a01995050600181019050613861565b50829750879550505050505092915050565b600060208201905081810360008301526138c58184613836565b905092915050565b6000602082840312156138e3576138e2613411565b5b60006138f18482850161349a565b91505092915050565b6000602082840312156139105761390f613411565b5b600061391e8482850161359d565b91505092915050565b6139308161343b565b82525050565b600060608201905061394b6000830186613927565b818103602083015261395d81856133ac565b9050818103604083015261397181846133ac565b9050949350505050565b600080fd5b600080fd5b7f4e487b7100000000000000000000000000000000000000000000000000000000600052604160045260246000fd5b6139bd8261339b565b810181811067ffffffffffffffff821117156139dc576139db613985565b5b80604052505050565b60006139ef613407565b90506139fb82826139b4565b919050565b600067ffffffffffffffff821115613a1b57613a1a613985565b5b613a248261339b565b9050602081019050919050565b82818337600083830152505050565b6000613a53613a4e84613a00565b6139e5565b905082815260208101848484011115613a6f57613a6e613980565b5b613a7a848285613a31565b509392505050565b600082601f830112613a9757613a9661397b565b5b8135613aa7848260208601613a40565b91505092915050565b60078110613abd57600080fd5b50565b600081359050613acf81613ab0565b92915050565b60008060008060808587031215613aef57613aee613411565b5b6000613afd8782880161349a565b945050602085013567ffffffffffffffff811115613b1e57613b1d613416565b5b613b2a87828801613a82565b9350506040613b3b87828801613ac0565b9250506060613b4c8782880161349a565b91505092959194509250565b6000602082019050613b6d6000830184613927565b92915050565b613b7c8161374d565b82525050565b600060c082019050613b97600083018961355c565b8181036020830152613ba981886133ac565b9050613bb86040830187613b73565b613bc5606083018661355c565b613bd26080830185613927565b613bdf60a08301846134fb565b979650505050505050565b60008060408385031215613c0157613c00613411565b5b6000613c0f85828601613464565b9250506020613c2085828601613464565b9150509250929050565b7f4e487b7100000000000000000000000000000000000000000000000000000000600052602260045260246000fd5b60006002820490506001821680613c7157607f821691505b60208210811415613c8557613c84613c2a565b5b50919050565b7f506c61796572206973206e6f7420696e2074686520616c6c6f776c6973742e00600082015250565b6000613cc1601f83613357565b9150613ccc82613c8b565b602082019050919050565b60006020820190508181036000830152613cf081613cb4565b9050919050565b7f4e487b7100000000000000000000000000000000000000000000000000000000600052601160045260246000fd5b6000613d3182613525565b9150613d3c83613525565b92508160ff0483118215151615613d5657613d55613cf7565b5b828202905092915050565b6000613d6c82613479565b9150613d7783613479565b925082821015613d8a57613d89613cf7565b5b828203905092915050565b6000613da082613479565b9150613dab83613479565b9250827fffffffffffffffffffffffffffffffffffffffffffffffffffffffffffffffff03821115613de057613ddf613cf7565b5b828201905092915050565b6000613df682613479565b91507fffffffffffffffffffffffffffffffffffffffffffffffffffffffffffffffff821415613e2957613e28613cf7565b5b600182019050919050565b7f4e487b7100000000000000000000000000000000000000000000000000000000600052603260045260246000fd5b6000604082019050613e786000830185613927565b613e85602083018461355c565b9392505050565b7f4974656d20646f6573206e6f7420657869737400000000000000000000000000600082015250565b6000613ec2601383613357565b9150613ecd82613e8c565b602082019050919050565b60006020820190508181036000830152613ef181613eb5565b9050919050565b7f4974656d20697320616c72656164792070757263686173656400000000000000600082015250565b6000613f2e601983613357565b9150613f3982613ef8565b602082019050919050565b60006020820190508181036000830152613f5d81613f21565b9050919050565b7f496e73756666696369656e742066756e64730000000000000000000000000000600082015250565b6000613f9a601283613357565b9150613fa582613f64565b602082019050919050565b60006020820190508181036000830152613fc981613f8d565b9050919050565b7f4e487b7100000000000000000000000000000000000000000000000000000000600052600160045260246000fdfe494c4c4547414c5f5452414e534645525f544f5f44454e595f4c49535445445f41444452455353a2646970667358221220961d9e07f4855831317b885675119a8d9a8d9d2ab38792a83d67688b303553f264736f6c634300080b0033",
  "immutableReferences": {},
  "source": "//SPDX-License-Identifier : MIT\npragma solidity ^0.8.0;\n\nimport \"./SafeMath.sol\";\n\ncontract owned {\n    address public owner;\n    mapping(address => bool) admins;\n    mapping(address => bool) developers;\n    mapping(address => bool) players;\n    constructor () {\n        owner = msg.sender;\n        admins[msg.sender] = true;\n        developers[msg.sender] = true;\n    }\n    //modifiers for the contracts\n    modifier onlyOwner {\n        require(msg.sender == owner);\n        _;\n    }\n    modifier onlyAdmin() {\n        require(admins[msg.sender] == true);\n            _;\n    }\n    modifier onlyDevelopers(){\n        require(developers[msg.sender]==true);\n        _;\n    }\n    function transferOwnership(address newOwner) onlyOwner public {\n        owner = newOwner;\n    }\n    function isAdmin(address account) onlyOwner public view returns (bool) {   \n        return admins[account];\n    }\n    function isDeveloper(address account) onlyOwner public view returns (bool) {   \n        return developers[account];\n    }\n    function addAdmin(address account) onlyOwner public {\n        require(account != address(0) && !admins[account]);             \n        admins[account] = true;    \n    }\n    function addGameDeveloper(address account) onlyAdmin public {\n        require(account != address(0) && !developers[account]);             \n        developers[account] = true;    \n    }\n    function addPlayer(address account) onlyAdmin public {\n        require(account != address(0) && !players[account]);             \n        players[account] = true;    \n    }\n}\ncontract AllowList is owned {\n    mapping(address => bool) allowList;\n    //Allowlist functions for security\n    function addAllowList(address account) onlyAdmin public{\n        require(account != address(0) && !allowList[account]);             \n        allowList[account] = true;    \n    }\n\n    function isAllowList(address account) public view returns (bool) {   \n        return allowList[account];\n    }\n\n    function removeAllowListed(address account) public onlyAdmin {\n        require(account != address(0) && allowList[account]);\n        allowList[account] = false;    \n    }\n}\n/**\n * make contract function pausable\n */\ncontract Pausable is owned {\n    event PausedEvt(address account);\n    event UnpausedEvt(address account);\n    bool private paused;\n    constructor  () {\n        paused = false;\n    }\n    //Pause mechanism for security\n    modifier whenNotPaused() {\n        require(!paused);\n        _;\n    }\n    modifier whenPaused() {\n        require(paused);\n        _;\n    }\n    function pause() public onlyAdmin whenNotPaused {\n        paused = true;\n        emit PausedEvt(msg.sender);\n    }\n    function unpause() public onlyAdmin whenPaused {\n        paused = false;\n        emit UnpausedEvt(msg.sender);\n    }\n}\ninterface Inventory {\n    enum Damage {zero,one,two,three,four,fivve,six}\n    struct Item {\n        uint id;\n        string name;\n        Damage damage;\n        uint price;\n        address owner;\n        bool purchased;\n    }\n    function addItem(uint _id, string memory _name, Damage _damage, uint _price) external;\n    function buyItem(uint _id) external payable;\n}\n\ninterface IERC20{\n    function totalSupply() external view returns (uint256);\n    function balanceOf(address account) external view returns (uint256);\n    function transfer(address recipient, uint256 amount) external returns (bool);\n    function allowance(address owner, address spender) external view returns (uint256);\n    function approve(address spender, uint256 amount) external returns (bool);\n    function transferFrom(address sender, address recipient, uint256 amount) external returns (bool);\n    event Transfer(address indexed from, address indexed to, uint256 value);\n    event Approval(address indexed owner, address indexed spender, uint256 value);\n}\ncontract GameToken is IERC20,AllowList,Pausable,Inventory {\n    string public name = \"KriDe\";\n    string public symbol = \"KD\";\n    address payable contractAccount;\n    TokenSummary public tokensummary;\n    struct TokenSummary {\n        address initialAccount;\n        string name;\n        string symbol;\n    }\n    mapping(address => uint256) internal balances;\n    mapping (address => mapping (address => uint256)) internal allowed;\n    mapping(uint => Item) public items;\n    uint public itemCount;\n    mapping(address => uint) internal rewards;\n    uint256 internal _totalSupply;\n    uint8 public tokenAmount = 15;\n    uint8 public tokenReward;\n    uint8 public constant SUCCESS_CODE = 0;\n    string public constant SUCCESS_MESSAGE = \"SUCCESS\";\n    uint8 public constant DENY_LIST_CODE = 1;\n    string public constant DENY_LIST_ERROR = \"ILLEGAL_TRANSFER_TO_DENY_LISTED_ADDRESS\";\n    event Burn(address from, uint256 value);\n    constructor(address initialAccount, uint initialBalance) public payable {\n        addAllowList(initialAccount);\n        balances[initialAccount] = initialBalance;\n        _totalSupply = initialBalance;\n        tokensummary = TokenSummary(initialAccount, name, symbol);\n    }\n    modifier verify (address from, address to, uint256 value) {\n        uint8 restrictionCode = validateTransferRestricted(to);\n        require(restrictionCode == SUCCESS_CODE, messageHandler(restrictionCode));\n        _;\n    }\n\n    function validateTransferRestricted (address to) public view returns (uint8 restrictionCode) {\n        if (!isAllowList(to)) {\n            restrictionCode = DENY_LIST_CODE;\n        } else {\n            restrictionCode = SUCCESS_CODE;\n        }\n    }\n    function messageHandler (uint8 restrictionCode) public pure returns (string memory message) {\n        if (restrictionCode == SUCCESS_CODE) {\n            message = SUCCESS_MESSAGE;\n        } else if(restrictionCode == DENY_LIST_CODE) {\n            message = DENY_LIST_ERROR;\n        }\n    }\n    //return total supply\n    function totalSupply() public view returns (uint256) {\n       return _totalSupply;\n    }\n    // return the token balance of an account\n    function balanceOf(address account) public view returns (uint256) {\n      return balances[account];\n    }\n    // to transfer tokens between addresses in the allowlist\n    function transfer(address to, uint256 value) public verify(msg.sender, to, value)\n    whenNotPaused  returns (bool success) {\n        require(to != address(0) && balances[msg.sender]> value);\n        balances[msg.sender] = balances[msg.sender] - value;\n        balances[to] = balances[to] + value;\n        emit Transfer(msg.sender, to, value);\n        return true;\n    }\n    // to transfer tokens when allowance is set\n    function transferFrom(address from, address spender,uint256 value) public verify(from, spender, value) whenNotPaused returns (bool) {\n        require(spender != address(0) && value <= balances[from] && value <= allowed[from][msg.sender]);\n        balances[from] = balances[from] - value;\n        balances[spender] = balances[spender] + value;\n        allowed[from][msg.sender] = allowed[from][msg.sender] - value;\n        emit Transfer(from, spender, value);\n        return true;\n  \t}\n    // to retrieve the remaining allowance set between two addresses\n\tfunction allowance(address owner,address spender) public view returns (uint256) {\n   \t\treturn allowed[owner][spender];\n \t}\n    // to approve an allowance to an address\n    function approve(address spender, uint256 value) public returns (bool) {\n        require(spender != address(0));\n        allowed[msg.sender][spender] = value;\n        emit Approval(msg.sender, spender, value);\n        return true;\n   \t}\n    // to add an item to the inventory list\n    function addItem(uint _id, string memory _name, Damage _damage, uint _price) external onlyDevelopers override {\n        items[itemCount] = Item(_id, _name, _damage, _price, msg.sender, false);\n        itemCount++;\n    }\n    // to buy an item in the inventory list\n    function buyItem(uint _id) external payable override {\n        require(items[_id].id != 0, \"Item does not exist\");\n        require(items[_id].purchased == false, \"Item is already purchased\");\n        require(balances[msg.sender] >= items[_id].price, \"Insufficient funds\");\n        //Transfer funds\n        address seller = items[_id].owner;\n        uint amount = items[_id].price;\n        transfer(payable(seller),amount);\n        items[_id].owner = msg.sender;\n        items[_id].purchased = true;\n    }\n    // to retrieve items owned by an address\n    function getItemsByOwner(address _owner) external view returns (Item[] memory) {\n        uint ownedItemCount = 0;\n        for (uint i = 0; i < itemCount; i++) {\n            if (items[i].owner == _owner) {\n                ownedItemCount++;\n            }\n        }\n        Item[] memory ownedItems = new Item[](ownedItemCount);\n        uint ownedItemIndex = 0;\n        for (uint i = 0; i < itemCount; i++) {\n            if (items[i].owner == _owner) {\n                ownedItems[ownedItemIndex] = items[i];\n                ownedItemIndex++;\n            }\n        }\n        return ownedItems;\n    }\n    // to retrieve all the unpurchased items in the inventory list\n    function getUnpurchasedItems() external view returns (Item[] memory) {\n            uint unpurchasedItemCount = 0;\n            for (uint i = 0; i < itemCount; i++) {\n                if (items[i].purchased == false) {\n                    unpurchasedItemCount++;\n                }\n            }\n            Item[] memory unpurchasedItems = new Item[](unpurchasedItemCount);\n            uint unpurchasedItemIndex = 0;\n            for (uint i = 0; i < itemCount; i++) {\n                if (items[i].purchased == false) {\n                    unpurchasedItems[unpurchasedItemIndex] = items[i];\n                    unpurchasedItemIndex++;\n                }\n            }\n            return unpurchasedItems;\n    }\n    \n    //To transfer tokens as rewards\n    function addTokenByGamesWon(address player, uint8 gamesWon) public whenNotPaused onlyAdmin {\n        require(allowList[player] == true, \"Player is not in the allowlist.\");\n        tokenReward = gamesWon * tokenAmount;\n        balances[player] = safeArithmetic.add(balances[player],tokenReward);\n        balances[tokensummary.initialAccount] = balances[tokensummary.initialAccount] - tokenReward;\n        rewards[player]=safeArithmetic.add(rewards[player],tokenReward);\n    }\n    // to retrieve rewards earned tokens of an address\n    function getReward(address _player) public view returns (uint) {\n        return rewards[_player];\n    }\n\n    function burn(uint256 value) public whenNotPaused onlyAdmin returns (bool success) {\n\t\trequire(balances[msg.sender] >= value); \n\t\tbalances[msg.sender] -= value; \n\t\t_totalSupply -= value;\n\t\temit Burn(msg.sender, value);\n\t\treturn true;\n\t}\n\t\n\tfunction mint(address account, uint256 value) public whenNotPaused onlyAdmin returns (bool) {\n\t\trequire(account != address(0));\n\t\t_totalSupply = _totalSupply += value;\n\t\tbalances[account] = balances[account] + value;\n\t\temit Transfer(address(0), account, value);\n\t\treturn true;\n  \t}\n    receive() external payable {\n    // code to handle plain Ether transactions\n    }\n}\n\ncontract ExternalPlayer {\n    GameToken public gametoken;\n    address payable public owner;\n    mapping(address => uint256) public exbalances;\n    bool reentrancyGuard = true; \n    constructor(GameToken _gametoken) {\n        gametoken = _gametoken;\n        owner = payable(msg.sender);\n    }\n    // For players to join the game by sending ether\n    function sendEtherToContract() external payable {\n        require(msg.value == 1 ether, \"The amount sent must be 1 ether.\");\n        require(reentrancyGuard);\n        reentrancyGuard=false;\n        // Add the sender's balance to their external balance\n        exbalances[msg.sender] += msg.value;\n        // Release the reentrancy guard\n        reentrancyGuard=true;\n    }\n    // For owner to withdraw balance of the contract account\n    function withdrawBalance() external {\n        require(reentrancyGuard);\n        require(msg.sender == owner);\n        uint256 balance = address(this).balance;\n        reentrancyGuard=false;\n        owner.transfer(balance);\n        reentrancyGuard=true;\n    }\n}",
  "sourcePath": "/home/ian/cwapp/contracts/GameToken.sol",
  "compiler": {
    "name": "solc",
    "version": "0.8.11+commit.d7f03943.Emscripten.clang"
  },
  "schemaVersion": "3.4.4",
  "updatedAt": "2023-04-03T01:35:09.137Z",
  "networkType": "ethereum",
  "devdoc": {
    "kind": "dev",
    "methods": {},
    "version": 1
  },
  "userdoc": {
    "kind": "user",
    "methods": {},
    "version": 1
  }
}